{
  "contractName": "DHackathonFactory",
  "abi": [
    {
      "constant": true,
      "inputs": [],
      "name": "operational",
      "outputs": [
        {
          "internalType": "bool",
          "name": "",
          "type": "bool"
        }
      ],
      "payable": false,
      "stateMutability": "view",
      "type": "function"
    },
    {
      "constant": true,
      "inputs": [],
      "name": "counter",
      "outputs": [
        {
          "internalType": "uint256",
          "name": "",
          "type": "uint256"
        }
      ],
      "payable": false,
      "stateMutability": "view",
      "type": "function"
    },
    {
      "constant": true,
      "inputs": [
        {
          "internalType": "uint256",
          "name": "",
          "type": "uint256"
        }
      ],
      "name": "children",
      "outputs": [
        {
          "internalType": "address",
          "name": "",
          "type": "address"
        }
      ],
      "payable": false,
      "stateMutability": "view",
      "type": "function"
    },
    {
      "constant": false,
      "inputs": [],
      "name": "renounceOwnership",
      "outputs": [],
      "payable": false,
      "stateMutability": "nonpayable",
      "type": "function"
    },
    {
      "constant": true,
      "inputs": [],
      "name": "owner",
      "outputs": [
        {
          "internalType": "address",
          "name": "",
          "type": "address"
        }
      ],
      "payable": false,
      "stateMutability": "view",
      "type": "function"
    },
    {
      "constant": true,
      "inputs": [],
      "name": "isOwner",
      "outputs": [
        {
          "internalType": "bool",
          "name": "",
          "type": "bool"
        }
      ],
      "payable": false,
      "stateMutability": "view",
      "type": "function"
    },
    {
      "constant": false,
      "inputs": [
        {
          "internalType": "address",
          "name": "newOwner",
          "type": "address"
        }
      ],
      "name": "transferOwnership",
      "outputs": [],
      "payable": false,
      "stateMutability": "nonpayable",
      "type": "function"
    },
    {
      "anonymous": false,
      "inputs": [
        {
          "indexed": false,
          "internalType": "uint256",
          "name": "DHID",
          "type": "uint256"
        },
        {
          "indexed": false,
          "internalType": "string",
          "name": "name",
          "type": "string"
        },
        {
          "indexed": false,
          "internalType": "address",
          "name": "admin",
          "type": "address"
        },
        {
          "indexed": false,
          "internalType": "uint256",
          "name": "prize",
          "type": "uint256"
        },
        {
          "indexed": false,
          "internalType": "address",
          "name": "contractAddress",
          "type": "address"
        }
      ],
      "name": "DHackathonCreated",
      "type": "event"
    },
    {
      "anonymous": false,
      "inputs": [
        {
          "indexed": false,
          "internalType": "uint256",
          "name": "funds",
          "type": "uint256"
        }
      ],
      "name": "FundsWithdrawn",
      "type": "event"
    },
    {
      "anonymous": false,
      "inputs": [
        {
          "indexed": true,
          "internalType": "address",
          "name": "previousOwner",
          "type": "address"
        },
        {
          "indexed": true,
          "internalType": "address",
          "name": "newOwner",
          "type": "address"
        }
      ],
      "name": "OwnershipTransferred",
      "type": "event"
    },
    {
      "constant": false,
      "inputs": [
        {
          "internalType": "string",
          "name": "_name",
          "type": "string"
        },
        {
          "internalType": "uint256",
          "name": "_prize",
          "type": "uint256"
        }
      ],
      "name": "createDHackathon",
      "outputs": [],
      "payable": true,
      "stateMutability": "payable",
      "type": "function"
    },
    {
      "constant": false,
      "inputs": [],
      "name": "withdrawFunds",
      "outputs": [],
      "payable": false,
      "stateMutability": "nonpayable",
      "type": "function"
    },
    {
      "constant": false,
      "inputs": [],
      "name": "shutdown",
      "outputs": [],
      "payable": false,
      "stateMutability": "nonpayable",
      "type": "function"
    },
    {
      "constant": true,
      "inputs": [],
      "name": "getChildren",
      "outputs": [
        {
          "internalType": "address[]",
          "name": "",
          "type": "address[]"
        }
      ],
      "payable": false,
      "stateMutability": "view",
      "type": "function"
    }
  ],
  "bytecode": "0x60806040526001600260006101000a81548160ff021916908315150217905550336000806101000a81548173ffffffffffffffffffffffffffffffffffffffff021916908373ffffffffffffffffffffffffffffffffffffffff1602179055506000809054906101000a900473ffffffffffffffffffffffffffffffffffffffff1673ffffffffffffffffffffffffffffffffffffffff16600073ffffffffffffffffffffffffffffffffffffffff167f8be0079c531659141344cd1fd0a4f28419497f9722a3daafe3b4186f6b6457e060405160405180910390a36144db806100ea6000396000f3fe608060405260043610620000aa5760003560e01c8063715018a6116200006d578063715018a614620002195780638da5cb5b14620002335780638f32d59b146200028d578063b2a8f13c14620002bf578063f2fde38b146200038a578063fc0e74d114620003df57620000aa565b80630a40108614620000af57806324600fc314620000e15780634892e8e814620000fb57806361bc221a146200016c5780637002ce42146200019a575b600080fd5b348015620000bc57600080fd5b50620000c7620003f9565b604051808215151515815260200191505060405180910390f35b348015620000ee57600080fd5b50620000f96200040c565b005b3480156200010857600080fd5b50620001136200054c565b6040518080602001828103825283818151815260200191508051906020019060200280838360005b83811015620001585780820151818401526020810190506200013b565b505050509050019250505060405180910390f35b3480156200017957600080fd5b5062000184620005dc565b6040518082815260200191505060405180910390f35b348015620001a757600080fd5b50620001d760048036036020811015620001c057600080fd5b8101908080359060200190929190505050620005e2565b604051808273ffffffffffffffffffffffffffffffffffffffff1673ffffffffffffffffffffffffffffffffffffffff16815260200191505060405180910390f35b3480156200022657600080fd5b50620002316200061f565b005b3480156200024057600080fd5b506200024b620006f2565b604051808273ffffffffffffffffffffffffffffffffffffffff1673ffffffffffffffffffffffffffffffffffffffff16815260200191505060405180910390f35b3480156200029a57600080fd5b50620002a56200071b565b604051808215151515815260200191505060405180910390f35b6200038860048036036040811015620002d757600080fd5b8101908080359060200190640100000000811115620002f557600080fd5b8201836020820111156200030857600080fd5b803590602001918460018302840111640100000000831117156200032b57600080fd5b91908080601f016020809104026020016040519081016040528093929190818152602001838380828437600081840152601f19601f8201169050808301925050505050505091929192908035906020019092919050505062000772565b005b3480156200039757600080fd5b50620003dd60048036036020811015620003b057600080fd5b81019080803573ffffffffffffffffffffffffffffffffffffffff16906020019092919050505062000ac8565b005b348015620003ec57600080fd5b50620003f762000aea565b005b600260009054906101000a900460ff1681565b620004166200071b565b6200042057600080fd5b60003073ffffffffffffffffffffffffffffffffffffffff163111620004ae576040517f08c379a00000000000000000000000000000000000000000000000000000000081526004018080602001828103825260148152602001807f4e6f2066756e647320746f20776974686472617700000000000000000000000081525060200191505060405180910390fd5b60003073ffffffffffffffffffffffffffffffffffffffff163190503373ffffffffffffffffffffffffffffffffffffffff166108fc829081150290604051600060405180830381858888f1935050505015801562000511573d6000803e3d6000fd5b507f4a37b25aab49761ecf63117fe82b98d750917451133cf797507bc9fb5b96044a816040518082815260200191505060405180910390a150565b60606003805480602002602001604051908101604052809291908181526020018280548015620005d257602002820191906000526020600020905b8160009054906101000a900473ffffffffffffffffffffffffffffffffffffffff1673ffffffffffffffffffffffffffffffffffffffff168152602001906001019080831162000587575b5050505050905090565b60015481565b60038181548110620005f057fe5b906000526020600020016000915054906101000a900473ffffffffffffffffffffffffffffffffffffffff1681565b620006296200071b565b6200063357600080fd5b600073ffffffffffffffffffffffffffffffffffffffff166000809054906101000a900473ffffffffffffffffffffffffffffffffffffffff1673ffffffffffffffffffffffffffffffffffffffff167f8be0079c531659141344cd1fd0a4f28419497f9722a3daafe3b4186f6b6457e060405160405180910390a360008060006101000a81548173ffffffffffffffffffffffffffffffffffffffff021916908373ffffffffffffffffffffffffffffffffffffffff160217905550565b60008060009054906101000a900473ffffffffffffffffffffffffffffffffffffffff16905090565b60008060009054906101000a900473ffffffffffffffffffffffffffffffffffffffff1673ffffffffffffffffffffffffffffffffffffffff163373ffffffffffffffffffffffffffffffffffffffff1614905090565b60011515600260009054906101000a900460ff16151514620007e0576040517f08c379a000000000000000000000000000000000000000000000000000000000815260040180806020018281038252602c8152602001806200444c602c913960400191505060405180910390fd5b67016345785d8a000034101562000843576040517f08c379a000000000000000000000000000000000000000000000000000000000815260040180806020018281038252602f81526020018062004478602f913960400191505060405180910390fd5b600180600082825401925050819055506000600154833384426040516200086a9062000c23565b80868152602001806020018573ffffffffffffffffffffffffffffffffffffffff1673ffffffffffffffffffffffffffffffffffffffff168152602001848152602001838152602001828103825286818151815260200191508051906020019080838360005b83811015620008ed578082015181840152602081019050620008d0565b50505050905090810190601f1680156200091b5780820380516001836020036101000a031916815260200191505b509650505050505050604051809103906000f08015801562000941573d6000803e3d6000fd5b50905060038190806001815401808255809150509060018203906000526020600020016000909192909190916101000a81548173ffffffffffffffffffffffffffffffffffffffff021916908373ffffffffffffffffffffffffffffffffffffffff160217905550507f16cb91b61f40010ae01c6e49788f78f2ea946cd282486a8b872da41d93d0f8126001548433858560405180868152602001806020018573ffffffffffffffffffffffffffffffffffffffff1673ffffffffffffffffffffffffffffffffffffffff1681526020018481526020018373ffffffffffffffffffffffffffffffffffffffff1673ffffffffffffffffffffffffffffffffffffffff168152602001828103825286818151815260200191508051906020019080838360005b8381101562000a8457808201518184015260208101905062000a67565b50505050905090810190601f16801562000ab25780820380516001836020036101000a031916815260200191505b50965050505050505060405180910390a1505050565b62000ad26200071b565b62000adc57600080fd5b62000ae78162000b2a565b50565b62000af46200071b565b62000afe57600080fd5b600260009054906101000a900460ff1615600260006101000a81548160ff021916908315150217905550565b600073ffffffffffffffffffffffffffffffffffffffff168173ffffffffffffffffffffffffffffffffffffffff16141562000b6557600080fd5b8073ffffffffffffffffffffffffffffffffffffffff166000809054906101000a900473ffffffffffffffffffffffffffffffffffffffff1673ffffffffffffffffffffffffffffffffffffffff167f8be0079c531659141344cd1fd0a4f28419497f9722a3daafe3b4186f6b6457e060405160405180910390a3806000806101000a81548173ffffffffffffffffffffffffffffffffffffffff021916908373ffffffffffffffffffffffffffffffffffffffff16021790555050565b61381a8062000c328339019056fe60806040523480156200001157600080fd5b506040516200381a3803806200381a833981810160405260a08110156200003757600080fd5b8101908080519060200190929190805160405193929190846401000000008211156200006257600080fd5b838201915060208201858111156200007957600080fd5b82518660018202830111640100000000821117156200009757600080fd5b8083526020830192505050908051906020019080838360005b83811015620000cd578082015181840152602081019050620000b0565b50505050905090810190601f168015620000fb5780820380516001836020036101000a031916815260200191505b506040526020018051906020019092919080519060200190929190805190602001909291905050508460078190555083600890805190602001906200014292919062000294565b5082600960006101000a81548173ffffffffffffffffffffffffffffffffffffffff021916908373ffffffffffffffffffffffffffffffffffffffff16021790555081600a8190555080600b819055506000600660006101000a81548160ff02191690836003811115620001b257fe5b02179055507f804c1e53847f2a88adc1e8c45f1bc9d2e2418ba49bbc211138904296a17777226007546008600a546040518084815260200180602001838152602001828103825284818154600181600116156101000203166002900481526020019150805460018160011615610100020316600290048015620002795780601f106200024d5761010080835404028352916020019162000279565b820191906000526020600020905b8154815290600101906020018083116200025b57829003601f168201915b505094505050505060405180910390a1505050505062000343565b828054600181600116156101000203166002900490600052602060002090601f016020900481019282601f10620002d757805160ff191683800117855562000308565b8280016001018555821562000308579182015b8281111562000307578251825591602001919060010190620002ea565b5b5090506200031791906200031b565b5090565b6200034091905b808211156200033c57600081600090555060010162000322565b5090565b90565b6134c780620003536000396000f3fe6080604052600436106101b75760003560e01c8063927cab47116100ec578063d08b11651161008a578063e5106bdf11610064578063e5106bdf14610951578063ed896d661461097c578063f755e0bd146109e5578063f851a440146109fc576101b7565b8063d08b1165146108a3578063ddfbb9d4146108ba578063e3ac5d2614610926576101b7565b80639f38cabc116100c65780639f38cabc14610773578063ae2ac4ae146107ee578063b69ef8a81461083f578063c19d93fb1461086a576101b7565b8063927cab471461068e578063929066f5146106df5780639f2ce59414610748576101b7565b806348d37a58116101595780637bc27dac116101335780637bc27dac14610409578063832cc51f1461045a578063840e78fd14610522578063866b138414610622576101b7565b806348d37a58146103d15780634b30b66f146103e8578063513b0fc9146103ff576101b7565b806326fcaf001161019557806326fcaf001461033057806337655066146103475780633c8d06ee146103b0578063463d2c4d146103c7576101b7565b806306fdde03146101bc5780630e6fdaa11461024c57806324d7806c146102c7575b600080fd5b3480156101c857600080fd5b506101d1610a53565b6040518080602001828103825283818151815260200191508051906020019080838360005b838110156102115780820151818401526020810190506101f6565b50505050905090810190601f16801561023e5780820380516001836020036101000a031916815260200191505b509250505060405180910390f35b34801561025857600080fd5b506102856004803603602081101561026f57600080fd5b8101908080359060200190929190505050610af1565b604051808273ffffffffffffffffffffffffffffffffffffffff1673ffffffffffffffffffffffffffffffffffffffff16815260200191505060405180910390f35b3480156102d357600080fd5b50610316600480360360208110156102ea57600080fd5b81019080803573ffffffffffffffffffffffffffffffffffffffff169060200190929190505050610b2d565b604051808215151515815260200191505060405180910390f35b34801561033c57600080fd5b50610345610b87565b005b34801561035357600080fd5b506103966004803603602081101561036a57600080fd5b81019080803573ffffffffffffffffffffffffffffffffffffffff169060200190929190505050610c90565b604051808215151515815260200191505060405180910390f35b3480156103bc57600080fd5b506103c5610cb0565b005b6103cf610ea3565b005b3480156103dd57600080fd5b506103e6611150565b005b3480156103f457600080fd5b506103fd611518565b005b610407611523565b005b34801561041557600080fd5b506104586004803603602081101561042c57600080fd5b81019080803573ffffffffffffffffffffffffffffffffffffffff16906020019092919050505061175f565b005b34801561046657600080fd5b506105206004803603602081101561047d57600080fd5b810190808035906020019064010000000081111561049a57600080fd5b8201836020820111156104ac57600080fd5b803590602001918460018302840111640100000000831117156104ce57600080fd5b91908080601f016020809104026020016040519081016040528093929190818152602001838380828437600081840152601f19601f820116905080830192505050505050509192919290505050611c76565b005b34801561052e57600080fd5b506105716004803603602081101561054557600080fd5b81019080803573ffffffffffffffffffffffffffffffffffffffff169060200190929190505050611e7c565b6040518080602001846fffffffffffffffffffffffffffffffff166fffffffffffffffffffffffffffffffff16815260200183151515158152602001828103825285818151815260200191508051906020019080838360005b838110156105e55780820151818401526020810190506105ca565b50505050905090810190601f1680156106125780820380516001836020036101000a031916815260200191505b5094505050505060405180910390f35b34801561062e57600080fd5b50610637611f67565b6040518080602001828103825283818151815260200191508051906020019060200280838360005b8381101561067a57808201518184015260208101905061065f565b505050509050019250505060405180910390f35b34801561069a57600080fd5b506106dd600480360360208110156106b157600080fd5b81019080803573ffffffffffffffffffffffffffffffffffffffff169060200190929190505050611ff5565b005b3480156106eb57600080fd5b5061072e6004803603602081101561070257600080fd5b81019080803573ffffffffffffffffffffffffffffffffffffffff1690602001909291905050506121fa565b604051808215151515815260200191505060405180910390f35b34801561075457600080fd5b5061075d612217565b6040518082815260200191505060405180910390f35b34801561077f57600080fd5b506107ac6004803603602081101561079657600080fd5b810190808035906020019092919050505061221d565b604051808273ffffffffffffffffffffffffffffffffffffffff1673ffffffffffffffffffffffffffffffffffffffff16815260200191505060405180910390f35b3480156107fa57600080fd5b5061083d6004803603602081101561081157600080fd5b81019080803573ffffffffffffffffffffffffffffffffffffffff169060200190929190505050612259565b005b34801561084b57600080fd5b506108546123bc565b6040518082815260200191505060405180910390f35b34801561087657600080fd5b5061087f6123db565b6040518082600381111561088f57fe5b60ff16815260200191505060405180910390f35b3480156108af57600080fd5b506108b86123ee565b005b3480156108c657600080fd5b506108cf6124d5565b6040518080602001828103825283818151815260200191508051906020019060200280838360005b838110156109125780820151818401526020810190506108f7565b505050509050019250505060405180910390f35b34801561093257600080fd5b5061093b612563565b6040518082815260200191505060405180910390f35b34801561095d57600080fd5b50610966612569565b6040518082815260200191505060405180910390f35b34801561098857600080fd5b506109cb6004803603602081101561099f57600080fd5b81019080803573ffffffffffffffffffffffffffffffffffffffff16906020019092919050505061256f565b604051808215151515815260200191505060405180910390f35b3480156109f157600080fd5b506109fa61258c565b005b348015610a0857600080fd5b50610a116126d3565b604051808273ffffffffffffffffffffffffffffffffffffffff1673ffffffffffffffffffffffffffffffffffffffff16815260200191505060405180910390f35b60088054600181600116156101000203166002900480601f016020809104026020016040519081016040528092919081815260200182805460018160011615610100020316600290048015610ae95780601f10610abe57610100808354040283529160200191610ae9565b820191906000526020600020905b815481529060010190602001808311610acc57829003601f168201915b505050505081565b60048181548110610afe57fe5b906000526020600020016000915054906101000a900473ffffffffffffffffffffffffffffffffffffffff1681565b6000600960009054906101000a900473ffffffffffffffffffffffffffffffffffffffff1673ffffffffffffffffffffffffffffffffffffffff168273ffffffffffffffffffffffffffffffffffffffff16149050919050565b610b9033610b2d565b610be5576040517f08c379a00000000000000000000000000000000000000000000000000000000081526004018080602001828103825260218152602001806132066021913960400191505060405180910390fd5b610c8e60075460088054600181600116156101000203166002900480601f016020809104026020016040519081016040528092919081815260200182805460018160011615610100020316600290048015610c815780601f10610c5657610100808354040283529160200191610c81565b820191906000526020600020905b815481529060010190602001808311610c6457829003601f168201915b5050505050600a546126f9565b565b600e6020528060005260406000206000915054906101000a900460ff1681565b610cb933610b2d565b610d0e576040517f08c379a00000000000000000000000000000000000000000000000000000000081526004018080602001828103825260218152602001806132066021913960400191505060405180910390fd5b6001600d60009054906101000a90046fffffffffffffffffffffffffffffffff166fffffffffffffffffffffffffffffffff161015610d98576040517f08c379a00000000000000000000000000000000000000000000000000000000081526004018080602001828103825260288152602001806132496028913960400191505060405180910390fd5b610e4160075460088054600181600116156101000203166002900480601f016020809104026020016040519081016040528092919081815260200182805460018160011615610100020316600290048015610e345780601f10610e0957610100808354040283529160200191610e34565b820191906000526020600020905b815481529060010190602001808311610e1757829003601f168201915b5050505050600a5461284c565b610e9b600d60009054906101000a90046fffffffffffffffffffffffffffffffff166fffffffffffffffffffffffffffffffff163073ffffffffffffffffffffffffffffffffffffffff163161299f90919063ffffffff16565b600f81905550565b610eac33610b2d565b610f01576040517f08c379a00000000000000000000000000000000000000000000000000000000081526004018080602001828103825260218152602001806132066021913960400191505060405180910390fd5b6000341115610f76577f23bac35767dec08bf219a302474bbc6687dfaaf3776a62d45bb7811de040e26d3334604051808373ffffffffffffffffffffffffffffffffffffffff1673ffffffffffffffffffffffffffffffffffffffff1681526020018281526020019250505060405180910390a15b600a543073ffffffffffffffffffffffffffffffffffffffff16311015610fe8576040517f08c379a00000000000000000000000000000000000000000000000000000000081526004018080602001828103825260378152602001806133566037913960400191505060405180910390fd5b600180805490501015611046576040517f08c379a00000000000000000000000000000000000000000000000000000000081526004018080602001828103825260338152602001806132716033913960400191505060405180910390fd5b600260048054905010156110a5576040517f08c379a000000000000000000000000000000000000000000000000000000000815260040180806020018281038252603b81526020018061331b603b913960400191505060405180910390fd5b61114e60075460088054600181600116156101000203166002900480601f0160208091040260200160405190810160405280929190818152602001828054600181600116156101000203166002900480156111415780601f1061111657610100808354040283529160200191611141565b820191906000526020600020905b81548152906001019060200180831161112457829003601f168201915b5050505050600a546129c5565b565b611159336121fa565b6111ae576040517f08c379a00000000000000000000000000000000000000000000000000000000081526004018080602001828103825260268152602001806133b76026913960400191505060405180910390fd5b6003808111156111ba57fe5b600660009054906101000a900460ff1660038111156111d557fe5b1461122b576040517f08c379a00000000000000000000000000000000000000000000000000000000081526004018080602001828103825260258152602001806134226025913960400191505060405180910390fd5b600c60003373ffffffffffffffffffffffffffffffffffffffff1673ffffffffffffffffffffffffffffffffffffffff16815260200190815260200160002060010160109054906101000a900460ff16156112ee576040517f08c379a000000000000000000000000000000000000000000000000000000000815260040180806020018281038252601f8152602001807f596f7520616c726561647920776974686472657720796f75722066756e64730081525060200191505060405180910390fd5b6000600c60003373ffffffffffffffffffffffffffffffffffffffff1673ffffffffffffffffffffffffffffffffffffffff16815260200190815260200160002060010160009054906101000a90046fffffffffffffffffffffffffffffffff166fffffffffffffffffffffffffffffffff16116113b7576040517f08c379a000000000000000000000000000000000000000000000000000000000815260040180806020018281038252602d8152602001806132cd602d913960400191505060405180910390fd5b6000600c60003373ffffffffffffffffffffffffffffffffffffffff1673ffffffffffffffffffffffffffffffffffffffff16815260200190815260200160002090506000611443600f548360010160009054906101000a90046fffffffffffffffffffffffffffffffff166fffffffffffffffffffffffffffffffff16612b1890919063ffffffff16565b905060018260010160106101000a81548160ff0219169083151502179055503373ffffffffffffffffffffffffffffffffffffffff166108fc829081150290604051600060405180830381858888f193505050501580156114a8573d6000803e3d6000fd5b507f0835f27f462de8bce2ca086b3439451a8842d337fe4bf1fcc4aced1f952a2e2f3382604051808373ffffffffffffffffffffffffffffffffffffffff1673ffffffffffffffffffffffffffffffffffffffff1681526020018281526020019250505060405180910390a15050565b61152133612b52565b565b61152c3361256f565b1561159f576040517f08c379a000000000000000000000000000000000000000000000000000000000815260040180806020018281038252601c8152602001807f54686520606d73672e73656e646572602069732061204a756467652e0000000081525060200191505060405180910390fd5b6115a8336121fa565b156115fe576040517f08c379a00000000000000000000000000000000000000000000000000000000081526004018080602001828103825260228152602001806133dd6022913960400191505060405180910390fd5b60038081111561160a57fe5b600660009054906101000a900460ff16600381111561162557fe5b141561167c576040517f08c379a00000000000000000000000000000000000000000000000000000000081526004018080602001828103825260258152602001806134226025913960400191505060405180910390fd5b600034116116f2576040517f08c379a00000000000000000000000000000000000000000000000000000000081526004018080602001828103825260148152602001807f4d7573742073656e6420736f6d652066756e647300000000000000000000000081525060200191505060405180910390fd5b7f23bac35767dec08bf219a302474bbc6687dfaaf3776a62d45bb7811de040e26d3334604051808373ffffffffffffffffffffffffffffffffffffffff1673ffffffffffffffffffffffffffffffffffffffff1681526020018281526020019250505060405180910390a1565b6117683361256f565b6117da576040517f08c379a00000000000000000000000000000000000000000000000000000000081526004018080602001828103825260208152602001807f54686520606d73672e73656e64657260206973206e6f742061204a756467652e81525060200191505060405180910390fd5b600260038111156117e757fe5b600660009054906101000a900460ff16600381111561180257fe5b14611858576040517f08c379a00000000000000000000000000000000000000000000000000000000081526004018080602001828103825260258152602001806131e16025913960400191505060405180910390fd5b600e60003373ffffffffffffffffffffffffffffffffffffffff1673ffffffffffffffffffffffffffffffffffffffff16815260200190815260200160002060009054906101000a900460ff1615611918576040517f08c379a00000000000000000000000000000000000000000000000000000000081526004018080602001828103825260178152602001807f4a756467652068617320616c726561647920766f74656400000000000000000081525060200191505060405180910390fd5b611921816121fa565b611976576040517f08c379a00000000000000000000000000000000000000000000000000000000081526004018080602001828103825260278152602001806134476027913960400191505060405180910390fd5b6040518060200160405280600081525080519060200120600c60008373ffffffffffffffffffffffffffffffffffffffff1673ffffffffffffffffffffffffffffffffffffffff1681526020019081526020016000206000016040518082805460018160011615610100020316600290048015611a2a5780601f10611a08576101008083540402835291820191611a2a565b820191906000526020600020905b815481529060010190602001808311611a16575b505091505060405180910390201415611a8e576040517f08c379a00000000000000000000000000000000000000000000000000000000081526004018080602001828103825260228152602001806132276022913960400191505060405180910390fd5b6001600e60003373ffffffffffffffffffffffffffffffffffffffff1673ffffffffffffffffffffffffffffffffffffffff16815260200190815260200160002060006101000a81548160ff0219169083151502179055506001600d60008282829054906101000a90046fffffffffffffffffffffffffffffffff160192506101000a8154816fffffffffffffffffffffffffffffffff02191690836fffffffffffffffffffffffffffffffff1602179055506001600c60008373ffffffffffffffffffffffffffffffffffffffff1673ffffffffffffffffffffffffffffffffffffffff16815260200190815260200160002060010160008282829054906101000a90046fffffffffffffffffffffffffffffffff160192506101000a8154816fffffffffffffffffffffffffffffffff02191690836fffffffffffffffffffffffffffffffff1602179055507ff89a28198b273a7d1c62c1b4726a31680af3bfc40a4b9b3ba23dae28c30457aa3382604051808373ffffffffffffffffffffffffffffffffffffffff1673ffffffffffffffffffffffffffffffffffffffff1681526020018273ffffffffffffffffffffffffffffffffffffffff1673ffffffffffffffffffffffffffffffffffffffff1681526020019250505060405180910390a150565b611c7f336121fa565b611cd4576040517f08c379a00000000000000000000000000000000000000000000000000000000081526004018080602001828103825260268152602001806133b76026913960400191505060405180910390fd5b60016003811115611ce157fe5b600660009054906101000a900460ff166003811115611cfc57fe5b14611d52576040517f08c379a00000000000000000000000000000000000000000000000000000000081526004018080602001828103825260238152602001806133ff6023913960400191505060405180910390fd5b80600c60003373ffffffffffffffffffffffffffffffffffffffff1673ffffffffffffffffffffffffffffffffffffffff1681526020019081526020016000206000019080519060200190611da89291906130f3565b507fdd5f4fb03f3ce4592097f110f491068ec1585452a9eb99b1a769e87302d3fc8e3382604051808373ffffffffffffffffffffffffffffffffffffffff1673ffffffffffffffffffffffffffffffffffffffff16815260200180602001828103825283818151815260200191508051906020019080838360005b83811015611e3e578082015181840152602081019050611e23565b50505050905090810190601f168015611e6b5780820380516001836020036101000a031916815260200191505b50935050505060405180910390a150565b600c602052806000526040600020600091509050806000018054600181600116156101000203166002900480601f016020809104026020016040519081016040528092919081815260200182805460018160011615610100020316600290048015611f285780601f10611efd57610100808354040283529160200191611f28565b820191906000526020600020905b815481529060010190602001808311611f0b57829003601f168201915b5050505050908060010160009054906101000a90046fffffffffffffffffffffffffffffffff16908060010160109054906101000a900460ff16905083565b60606001805480602002602001604051908101604052809291908181526020018280548015611feb57602002820191906000526020600020905b8160009054906101000a900473ffffffffffffffffffffffffffffffffffffffff1673ffffffffffffffffffffffffffffffffffffffff1681526020019060010190808311611fa1575b5050505050905090565b611ffe33610b2d565b612053576040517f08c379a00000000000000000000000000000000000000000000000000000000081526004018080602001828103825260218152602001806132066021913960400191505060405180910390fd5b6000600381111561206057fe5b600660009054906101000a900460ff16600381111561207b57fe5b146120d1576040517f08c379a000000000000000000000000000000000000000000000000000000000815260040180806020018281038252602a81526020018061338d602a913960400191505060405180910390fd5b6120da816121fa565b15612130576040517f08c379a000000000000000000000000000000000000000000000000000000000815260040180806020018281038252602581526020018061346e6025913960400191505060405180910390fd5b61213981610b2d565b1561218f576040517f08c379a00000000000000000000000000000000000000000000000000000000081526004018080602001828103825260218152602001806132fa6021913960400191505060405180910390fd5b6121988161256f565b156121ee576040517f08c379a00000000000000000000000000000000000000000000000000000000081526004018080602001828103825260218152602001806131c06021913960400191505060405180910390fd5b6121f781612c25565b50565b6000612210826003612d2e90919063ffffffff16565b9050919050565b600b5481565b6001818154811061222a57fe5b906000526020600020016000915054906101000a900473ffffffffffffffffffffffffffffffffffffffff1681565b61226233610b2d565b6122b7576040517f08c379a00000000000000000000000000000000000000000000000000000000081526004018080602001828103825260218152602001806132066021913960400191505060405180910390fd5b6003808111156122c357fe5b600660009054906101000a900460ff1660038111156122de57fe5b1415612335576040517f08c379a00000000000000000000000000000000000000000000000000000000081526004018080602001828103825260258152602001806134226025913960400191505060405180910390fd5b61233e8161256f565b6123b0576040517f08c379a00000000000000000000000000000000000000000000000000000000081526004018080602001828103825260188152602001807f606163636f756e7460206973206e6f742061204a75646765000000000000000081525060200191505060405180910390fd5b6123b981612b52565b50565b60003073ffffffffffffffffffffffffffffffffffffffff1631905090565b600660009054906101000a900460ff1681565b6123f7336121fa565b61244c576040517f08c379a00000000000000000000000000000000000000000000000000000000081526004018080602001828103825260268152602001806133b76026913960400191505060405180910390fd5b60038081111561245857fe5b600660009054906101000a900460ff16600381111561247357fe5b14156124ca576040517f08c379a00000000000000000000000000000000000000000000000000000000081526004018080602001828103825260258152602001806134226025913960400191505060405180910390fd5b6124d333612dc0565b565b6060600480548060200260200160405190810160405280929190818152602001828054801561255957602002820191906000526020600020905b8160009054906101000a900473ffffffffffffffffffffffffffffffffffffffff1673ffffffffffffffffffffffffffffffffffffffff168152602001906001019080831161250f575b5050505050905090565b600a5481565b60075481565b6000612585826000612d2e90919063ffffffff16565b9050919050565b6000600381111561259957fe5b600660009054906101000a900460ff1660038111156125b457fe5b1461260a576040517f08c379a000000000000000000000000000000000000000000000000000000000815260040180806020018281038252602a81526020018061338d602a913960400191505060405180910390fd5b6126133361256f565b15612669576040517f08c379a00000000000000000000000000000000000000000000000000000000081526004018080602001828103825260278152602001806131996027913960400191505060405180910390fd5b61267233610b2d565b156126c8576040517f08c379a00000000000000000000000000000000000000000000000000000000081526004018080602001828103825260298152602001806132a46029913960400191505060405180910390fd5b6126d133612e93565b565b600960009054906101000a900473ffffffffffffffffffffffffffffffffffffffff1681565b6001600381111561270657fe5b600660009054906101000a900460ff16600381111561272157fe5b14612777576040517f08c379a00000000000000000000000000000000000000000000000000000000081526004018080602001828103825260238152602001806133ff6023913960400191505060405180910390fd5b6002600660006101000a81548160ff0219169083600381111561279657fe5b02179055507f1c4c9b13224f580f2b7062981f5de7a9210ef5e97c2d95e06b0667e5c0053b068383836040518084815260200180602001838152602001828103825284818151815260200191508051906020019080838360005b8381101561280b5780820151818401526020810190506127f0565b50505050905090810190601f1680156128385780820380516001836020036101000a031916815260200191505b5094505050505060405180910390a1505050565b6002600381111561285957fe5b600660009054906101000a900460ff16600381111561287457fe5b146128ca576040517f08c379a00000000000000000000000000000000000000000000000000000000081526004018080602001828103825260258152602001806131e16025913960400191505060405180910390fd5b6003600660006101000a81548160ff021916908360038111156128e957fe5b02179055507f7d227f354169301f7a5dd2a4ac707b783dcb6cb6ca18cc8d1c0b022c0d1357578383836040518084815260200180602001838152602001828103825284818151815260200191508051906020019080838360005b8381101561295e578082015181840152602081019050612943565b50505050905090810190601f16801561298b5780820380516001836020036101000a031916815260200191505b5094505050505060405180910390a1505050565b60008082116129ad57600080fd5b60008284816129b857fe5b0490508091505092915050565b600060038111156129d257fe5b600660009054906101000a900460ff1660038111156129ed57fe5b14612a43576040517f08c379a000000000000000000000000000000000000000000000000000000000815260040180806020018281038252602a81526020018061338d602a913960400191505060405180910390fd5b6001600660006101000a81548160ff02191690836003811115612a6257fe5b02179055507f47b9bd09cee4a6a542808c894ad8a88613faf31320361fb800e413ee3d7776b28383836040518084815260200180602001838152602001828103825284818151815260200191508051906020019080838360005b83811015612ad7578082015181840152602081019050612abc565b50505050905090810190601f168015612b045780820380516001836020036101000a031916815260200191505b5094505050505060405180910390a1505050565b600080831415612b2b5760009050612b4c565b6000828402905082848281612b3c57fe5b0414612b4757600080fd5b809150505b92915050565b612b66816000612f9c90919063ffffffff16565b6001600260008373ffffffffffffffffffffffffffffffffffffffff1673ffffffffffffffffffffffffffffffffffffffff1681526020019081526020016000205481548110612bb257fe5b9060005260206000200160006101000a81549073ffffffffffffffffffffffffffffffffffffffff02191690558073ffffffffffffffffffffffffffffffffffffffff167f32a792a099c63670df7161917c5efb2fdc734cf9f943ebddccbecef87664f2b760405160405180910390a250565b612c3981600061304790919063ffffffff16565b600180549050600260008373ffffffffffffffffffffffffffffffffffffffff1673ffffffffffffffffffffffffffffffffffffffff1681526020019081526020016000208190555060018190806001815401808255809150509060018203906000526020600020016000909192909190916101000a81548173ffffffffffffffffffffffffffffffffffffffff021916908373ffffffffffffffffffffffffffffffffffffffff160217905550508073ffffffffffffffffffffffffffffffffffffffff167fe7f15f9ffff540ae14fdebcd9b6d6cc1fc143933338656c99caa595e8b80903960405160405180910390a250565b60008073ffffffffffffffffffffffffffffffffffffffff168273ffffffffffffffffffffffffffffffffffffffff161415612d6957600080fd5b8260000160008373ffffffffffffffffffffffffffffffffffffffff1673ffffffffffffffffffffffffffffffffffffffff16815260200190815260200160002060009054906101000a900460ff16905092915050565b612dd4816003612f9c90919063ffffffff16565b6004600560008373ffffffffffffffffffffffffffffffffffffffff1673ffffffffffffffffffffffffffffffffffffffff1681526020019081526020016000205481548110612e2057fe5b9060005260206000200160006101000a81549073ffffffffffffffffffffffffffffffffffffffff02191690558073ffffffffffffffffffffffffffffffffffffffff167f1a5e355a9a34d7eac1e439a6c610ba1fa72aa45f7645724ce5187fa19c3bd3fc60405160405180910390a250565b612ea781600361304790919063ffffffff16565b600480549050600560008373ffffffffffffffffffffffffffffffffffffffff1673ffffffffffffffffffffffffffffffffffffffff1681526020019081526020016000208190555060048190806001815401808255809150509060018203906000526020600020016000909192909190916101000a81548173ffffffffffffffffffffffffffffffffffffffff021916908373ffffffffffffffffffffffffffffffffffffffff160217905550508073ffffffffffffffffffffffffffffffffffffffff167f31d3ac54da09405b02d1de0ee0de648de637fbdc111123be0d7fc31f2a544c0b60405160405180910390a250565b600073ffffffffffffffffffffffffffffffffffffffff168173ffffffffffffffffffffffffffffffffffffffff161415612fd657600080fd5b612fe08282612d2e565b612fe957600080fd5b60008260000160008373ffffffffffffffffffffffffffffffffffffffff1673ffffffffffffffffffffffffffffffffffffffff16815260200190815260200160002060006101000a81548160ff0219169083151502179055505050565b600073ffffffffffffffffffffffffffffffffffffffff168173ffffffffffffffffffffffffffffffffffffffff16141561308157600080fd5b61308b8282612d2e565b1561309557600080fd5b60018260000160008373ffffffffffffffffffffffffffffffffffffffff1673ffffffffffffffffffffffffffffffffffffffff16815260200190815260200160002060006101000a81548160ff0219169083151502179055505050565b828054600181600116156101000203166002900490600052602060002090601f016020900481019282601f1061313457805160ff1916838001178555613162565b82800160010185558215613162579182015b82811115613161578251825591602001919060010190613146565b5b50905061316f9190613173565b5090565b61319591905b80821115613191576000816000905550600101613179565b5090565b9056fe41204a756467652063616e27742072656769737465722061732061205061727469636970616e7450726f706f736564206a7564676520697320616c72656164792061204a75646765444861636b6174686f6e206973206e6f7420696e2074686520566f74696e6720737461746554686520606d73672e73656e64657260206973206e6f74207468652061646d696e5061727469636970616e7420646964206e6f74207375626d69742050726f6a6563744174206c65617374203120766f7465206d7573742068617665206265656e207375626d69747465644174206c656173742031206a7564676520697320726571756972656420746f204f70656e2074686520444861636b6174686f6e5468652041646d696e2063616e27742072656769737465722061732061205061727469636970616e74596f75722070726f6a656374207265636569766564203020766f7465732066726f6d20746865204a756467657350726f706f736564206a756467652063616e2774206265207468652041646d696e4174206c656173742032207061727469636970616e74732061726520726571756972656420746f204f70656e2074686520444861636b6174686f6e46756e647320666f72207072697a65206d75737420626520696e20636f6e747261637420746f20737461727420444861636b6174686f6e444861636b6174686f6e206973206e6f7420696e20746865205072657061726174696f6e20737461746554686520606d73672e73656e64657260206973206e6f742061205061727469636970616e742e54686520606d73672e73656e646572602069732061205061727469636970616e742e444861636b6174686f6e206973206e6f7420696e20746865204f70656e207374617465444861636b6174686f6e206973206e6f7420696e2074686520436c6f73656420737461746554686520656c65637465642077696e6e6572206973206e6f742061205061727469636970616e7450726f706f736564206a756467652063616e27742062652061205061727469636970616e74a265627a7a72315820e30da530bbe928d6697353dfd249686433fffbd44771e5245f1c39f2c1dd808764736f6c634300050b00325468697320636f6e747261637420686173206265656e2073746f7070656420627920746865206f776e65722e444861636b6174686f6e206372656174696f6e207072696365206f6620302e31206574686572206e6f74206d65742ea265627a7a7231582073a2f2aedfa10b4706e858383cf4a7e0971d6fe17e00cc4cf2817ed46a7bdc0e64736f6c634300050b0032",
  "source": "pragma solidity >=0.5.11;\n\nimport './DHackathon.sol';\nimport '../node_modules/openzeppelin-solidity/contracts/math/SafeMath.sol';\nimport '../node_modules/openzeppelin-solidity/contracts/ownership/Ownable.sol';\n\n/// @author Alan Arvelo\ncontract DHackathonFactory is Ownable {\n    using SafeMath for uint256;\n\n    uint256 public counter;\n    bool public operational = true;\n    address[] public children;\n\n    event DHackathonCreated(uint256 DHID, string name, address admin, uint256 prize, address contractAddress);\n    event FundsWithdrawn(uint256 funds);\n\n    modifier isOperational() {\n        require(operational == true, \"This contract has been stopped by the owner.\");\n        _;\n    }\n\n    function createDHackathon(string memory _name, uint256 _prize)\n        public\n        payable\n        isOperational()\n    {\n        require(msg.value >= 0.1 ether, \"DHackathon creation price of 0.1 ether not met.\");\n        counter += 1;\n        DHackathon newDH = new DHackathon(counter, _name, msg.sender, _prize, block.timestamp);\n        children.push(address(newDH));\n        emit DHackathonCreated(counter, _name, msg.sender, _prize, address(newDH));\n    }\n\n    function withdrawFunds()\n        public\n        onlyOwner()\n    {\n        require(address(this).balance > 0, \"No funds to withdraw\");\n        uint256 funds = address(this).balance;\n        msg.sender.transfer(funds);\n        emit FundsWithdrawn(funds);\n    }\n\n    function shutdown()\n        public\n        onlyOwner()\n    {\n        operational = !operational;\n    }\n\n    function getChildren() public view returns(address[] memory){\n        return children;\n    }\n}\n",
  "sourcePath": "/Users/alanarvelo/Documents/COURSES/CONSENSYS/final-project/contracts/DHackathonFactory.sol",
  "compiler": {
    "name": "solc",
    "version": "0.5.11+commit.c082d0b4.Emscripten.clang"
  },
  "schemaVersion": "3.0.12",
  "updatedAt": "2020-01-31T13:57:26.892Z",
  "devdoc": {
    "author": "Alan Arvelo",
    "methods": {
      "isOwner()": {
        "return": "true if `msg.sender` is the owner of the contract."
      },
      "owner()": {
        "return": "the address of the owner."
      },
      "renounceOwnership()": {
        "details": "Allows the current owner to relinquish control of the contract."
      },
      "transferOwnership(address)": {
        "details": "Allows the current owner to transfer control of the contract to a newOwner.",
        "params": {
          "newOwner": "The address to transfer ownership to."
        }
      }
    }
  },
  "userdoc": {
    "methods": {
      "renounceOwnership()": {
        "notice": "Renouncing to ownership will leave the contract without an owner. It will not be possible to call the functions with the `onlyOwner` modifier anymore."
      }
    }
  }
}