{
  "contractName": "JudgeRole",
  "abi": [
    {
      "constant": true,
      "inputs": [
        {
          "internalType": "uint256",
          "name": "",
          "type": "uint256"
        }
      ],
      "name": "judgesList",
      "outputs": [
        {
          "internalType": "address",
          "name": "",
          "type": "address"
        }
      ],
      "payable": false,
      "stateMutability": "view",
      "type": "function"
    },
    {
      "anonymous": false,
      "inputs": [
        {
          "indexed": true,
          "internalType": "address",
          "name": "account",
          "type": "address"
        }
      ],
      "name": "JudgeAdded",
      "type": "event"
    },
    {
      "anonymous": false,
      "inputs": [
        {
          "indexed": true,
          "internalType": "address",
          "name": "account",
          "type": "address"
        }
      ],
      "name": "JudgeRemoved",
      "type": "event"
    },
    {
      "constant": true,
      "inputs": [
        {
          "internalType": "address",
          "name": "account",
          "type": "address"
        }
      ],
      "name": "isJudge",
      "outputs": [
        {
          "internalType": "bool",
          "name": "",
          "type": "bool"
        }
      ],
      "payable": false,
      "stateMutability": "view",
      "type": "function"
    },
    {
      "constant": false,
      "inputs": [],
      "name": "renounceJudge",
      "outputs": [],
      "payable": false,
      "stateMutability": "nonpayable",
      "type": "function"
    },
    {
      "constant": true,
      "inputs": [],
      "name": "getJudgesList",
      "outputs": [
        {
          "internalType": "address[]",
          "name": "",
          "type": "address[]"
        }
      ],
      "payable": false,
      "stateMutability": "view",
      "type": "function"
    }
  ],
  "bytecode": "0x608060405234801561001057600080fd5b506104bb806100206000396000f3fe608060405234801561001057600080fd5b506004361061004c5760003560e01c80634b30b66f14610051578063866b13841461005b5780639f38cabc146100ba578063ed896d6614610128575b600080fd5b610059610184565b005b61006361018f565b6040518080602001828103825283818151815260200191508051906020019060200280838360005b838110156100a657808201518184015260208101905061008b565b505050509050019250505060405180910390f35b6100e6600480360360208110156100d057600080fd5b810190808035906020019092919050505061021d565b604051808273ffffffffffffffffffffffffffffffffffffffff1673ffffffffffffffffffffffffffffffffffffffff16815260200191505060405180910390f35b61016a6004803603602081101561013e57600080fd5b81019080803573ffffffffffffffffffffffffffffffffffffffff169060200190929190505050610259565b604051808215151515815260200191505060405180910390f35b61018d33610276565b565b6060600180548060200260200160405190810160405280929190818152602001828054801561021357602002820191906000526020600020905b8160009054906101000a900473ffffffffffffffffffffffffffffffffffffffff1673ffffffffffffffffffffffffffffffffffffffff16815260200190600101908083116101c9575b5050505050905090565b6001818154811061022a57fe5b906000526020600020016000915054906101000a900473ffffffffffffffffffffffffffffffffffffffff1681565b600061026f82600061034990919063ffffffff16565b9050919050565b61028a8160006103db90919063ffffffff16565b6001600260008373ffffffffffffffffffffffffffffffffffffffff1673ffffffffffffffffffffffffffffffffffffffff16815260200190815260200160002054815481106102d657fe5b9060005260206000200160006101000a81549073ffffffffffffffffffffffffffffffffffffffff02191690558073ffffffffffffffffffffffffffffffffffffffff167f32a792a099c63670df7161917c5efb2fdc734cf9f943ebddccbecef87664f2b760405160405180910390a250565b60008073ffffffffffffffffffffffffffffffffffffffff168273ffffffffffffffffffffffffffffffffffffffff16141561038457600080fd5b8260000160008373ffffffffffffffffffffffffffffffffffffffff1673ffffffffffffffffffffffffffffffffffffffff16815260200190815260200160002060009054906101000a900460ff16905092915050565b600073ffffffffffffffffffffffffffffffffffffffff168173ffffffffffffffffffffffffffffffffffffffff16141561041557600080fd5b61041f8282610349565b61042857600080fd5b60008260000160008373ffffffffffffffffffffffffffffffffffffffff1673ffffffffffffffffffffffffffffffffffffffff16815260200190815260200160002060006101000a81548160ff021916908315150217905550505056fea265627a7a723158206dfbbead1caf35a41ea578b549fc0e99c927290b26f2f4b1b4a0041676533fe764736f6c634300050b0032",
  "source": "pragma solidity >=0.5.11;\n\n/// Import the library 'Roles'\nimport '../../node_modules/openzeppelin-solidity/contracts/access/Roles.sol';\n\n/// Define a contract `JudgeRole` to manage this role — add, remove, check\ncontract JudgeRole {\n    using Roles for Roles.Role;\n\n    /// Define 2 events, one for Adding, and other for Removing\n    event JudgeAdded(address indexed account);\n    event JudgeRemoved(address indexed account);\n\n    /// Define a struct `judges` by inheriting from `Roles` library the struct Role\n    Roles.Role private judges;\n    address[] public judgesList;\n    mapping(address => uint256) private judgeIndex;\n\n    /// Define a modifier that checks if `msg.sender` has the role\n    modifier onlyJudge() {\n        require(isJudge(msg.sender), \"The `msg.sender` is not a Judge.\");\n        _;\n    }\n\n    /// Define a modifier that checks if `msg.sender` does not have the role\n    modifier isNotJudge() {\n        require(!isJudge(msg.sender), \"The `msg.sender` is a Judge.\");\n        _;\n    }\n\n    /// Define a function `isJudge` to check this role\n    function isJudge(address account)\n        public\n        view\n        returns (bool)\n    {\n        return judges.has(account);\n    }\n\n    /// Define a function `renounceJudge` to renounce this role\n    function renounceJudge()\n        public\n    {\n        _removeJudge(msg.sender);\n    }\n\n    /// Define an internal function `_addJudge` to add this role\n    function _addJudge(address account)\n        internal\n    {\n        judges.add(account);\n        judgeIndex[account] = judgesList.length;\n        judgesList.push(account);\n        emit JudgeAdded(account);\n    }\n\n    /// Define an internal function `_removeJudge` to remove this role\n    function _removeJudge(address account)\n        internal\n    {\n        judges.remove(account);\n        delete judgesList[judgeIndex[account]];\n        emit JudgeRemoved(account);\n    }\n\n    /// Define an public function to get complete array judgesList\n    function getJudgesList()public view returns(address[] memory){\n        return judgesList;\n    }\n}",
  "sourcePath": "/Users/alanarvelo/Documents/COURSES/CONSENSYS/final-project/contracts/roles/JudgeRole.sol",
  "compiler": {
    "name": "solc",
    "version": "0.5.11+commit.c082d0b4.Emscripten.clang"
  },
  "schemaVersion": "3.0.12",
  "updatedAt": "2020-01-31T13:57:26.895Z",
  "devdoc": {
    "methods": {}
  },
  "userdoc": {
    "methods": {
      "getJudgesList()": {
        "notice": "Define an public function to get complete array judgesList"
      },
      "isJudge(address)": {
        "notice": "Define a function `isJudge` to check this role"
      },
      "renounceJudge()": {
        "notice": "Define a function `renounceJudge` to renounce this role"
      }
    },
    "notice": "Define a contract `JudgeRole` to manage this role — add, remove, check"
  }
}