{
  "contractName": "ParticipantRole",
  "abi": [
    {
      "constant": true,
      "inputs": [
        {
          "internalType": "uint256",
          "name": "",
          "type": "uint256"
        }
      ],
      "name": "participantList",
      "outputs": [
        {
          "internalType": "address",
          "name": "",
          "type": "address"
        }
      ],
      "payable": false,
      "stateMutability": "view",
      "type": "function"
    },
    {
      "anonymous": false,
      "inputs": [
        {
          "indexed": true,
          "internalType": "address",
          "name": "account",
          "type": "address"
        }
      ],
      "name": "ParticipantAdded",
      "type": "event"
    },
    {
      "anonymous": false,
      "inputs": [
        {
          "indexed": true,
          "internalType": "address",
          "name": "account",
          "type": "address"
        }
      ],
      "name": "ParticipantRemoved",
      "type": "event"
    },
    {
      "constant": true,
      "inputs": [
        {
          "internalType": "address",
          "name": "account",
          "type": "address"
        }
      ],
      "name": "isParticipant",
      "outputs": [
        {
          "internalType": "bool",
          "name": "",
          "type": "bool"
        }
      ],
      "payable": false,
      "stateMutability": "view",
      "type": "function"
    },
    {
      "constant": true,
      "inputs": [],
      "name": "getParticipantsList",
      "outputs": [
        {
          "internalType": "address[]",
          "name": "",
          "type": "address[]"
        }
      ],
      "payable": false,
      "stateMutability": "view",
      "type": "function"
    }
  ],
  "bytecode": "0x608060405234801561001057600080fd5b5061031d806100206000396000f3fe608060405234801561001057600080fd5b50600436106100415760003560e01c80630e6fdaa114610046578063929066f5146100b4578063ddfbb9d414610110575b600080fd5b6100726004803603602081101561005c57600080fd5b810190808035906020019092919050505061016f565b604051808273ffffffffffffffffffffffffffffffffffffffff1673ffffffffffffffffffffffffffffffffffffffff16815260200191505060405180910390f35b6100f6600480360360208110156100ca57600080fd5b81019080803573ffffffffffffffffffffffffffffffffffffffff1690602001909291905050506101ab565b604051808215151515815260200191505060405180910390f35b6101186101c8565b6040518080602001828103825283818151815260200191508051906020019060200280838360005b8381101561015b578082015181840152602081019050610140565b505050509050019250505060405180910390f35b6001818154811061017c57fe5b906000526020600020016000915054906101000a900473ffffffffffffffffffffffffffffffffffffffff1681565b60006101c182600061025690919063ffffffff16565b9050919050565b6060600180548060200260200160405190810160405280929190818152602001828054801561024c57602002820191906000526020600020905b8160009054906101000a900473ffffffffffffffffffffffffffffffffffffffff1673ffffffffffffffffffffffffffffffffffffffff1681526020019060010190808311610202575b5050505050905090565b60008073ffffffffffffffffffffffffffffffffffffffff168273ffffffffffffffffffffffffffffffffffffffff16141561029157600080fd5b8260000160008373ffffffffffffffffffffffffffffffffffffffff1673ffffffffffffffffffffffffffffffffffffffff16815260200190815260200160002060009054906101000a900460ff1690509291505056fea265627a7a72315820f0c1d74914e3489d123549c8e86b9052eb2933285922c61a4edc15b7b39cb04864736f6c634300050b0032",
  "source": "pragma solidity >=0.5.11;\n\n/// Import the library 'Roles'\nimport '../../node_modules/openzeppelin-solidity/contracts/access/Roles.sol';\n\n/// Define a contract `ParticipantRole` to manage this role — add, remove, check\ncontract ParticipantRole {\n    using Roles for Roles.Role;\n\n    /// Define 2 events, one for Adding, and other for Removing\n    event ParticipantAdded(address indexed account);\n    event ParticipantRemoved(address indexed account);\n\n    /// Define a struct `participants` by inheriting from `Roles` library the struct Role\n    Roles.Role private participants;\n    address[] public participantList;\n    mapping(address => uint256) private participantIndex;\n\n    /// Define a modifier that checks if `msg.sender` has the role\n    modifier onlyParticipant() {\n        require(isParticipant(msg.sender), \"The `msg.sender` is not a Participant.\");\n        _;\n    }\n\n    /// Define a modifier that checks if `msg.sender` does not have the role\n    modifier isNotParticipant() {\n        require(!isParticipant(msg.sender), \"The `msg.sender` is a Participant.\");\n        _;\n    }\n\n    /// Define a function `isParticipant` to check this role\n    function isParticipant(address account)\n        public\n        view\n        returns (bool)\n    {\n        return participants.has(account);\n    }\n\n    /// Define an internal function `_addParticipant` to add this role\n    function _addParticipant(address account)\n        internal\n    {\n        participants.add(account);\n        participantIndex[account] = participantList.length;\n        participantList.push(account);\n        emit ParticipantAdded(account);\n    }\n\n    /// Define an internal function `_removeParticipant` to remove this role\n    function _removeParticipant(address account)\n        internal\n    {\n        participants.remove(account);\n        delete participantList[participantIndex[account]];\n        emit ParticipantRemoved(account);\n    }\n\n    /// Define an public function to get complete array participantList\n    function getParticipantsList() public view returns(address[] memory){\n        return participantList;\n    }\n}",
  "sourcePath": "/Users/alanarvelo/Documents/COURSES/CONSENSYS/final-project/contracts/roles/ParticipantRole.sol",
  "compiler": {
    "name": "solc",
    "version": "0.5.11+commit.c082d0b4.Emscripten.clang"
  },
  "schemaVersion": "3.0.12",
  "updatedAt": "2020-01-31T20:42:36.665Z",
  "devdoc": {
    "methods": {}
  },
  "userdoc": {
    "methods": {
      "getParticipantsList()": {
        "notice": "Define an public function to get complete array participantList"
      },
      "isParticipant(address)": {
        "notice": "Define a function `isParticipant` to check this role"
      }
    },
    "notice": "Define a contract `ParticipantRole` to manage this role — add, remove, check"
  }
}