{
  "contractName": "StateTracker",
  "abi": [
    {
      "constant": true,
      "inputs": [],
      "name": "state",
      "outputs": [
        {
          "internalType": "enum StateTracker.DHState",
          "name": "",
          "type": "uint8"
        }
      ],
      "payable": false,
      "stateMutability": "view",
      "type": "function"
    },
    {
      "anonymous": false,
      "inputs": [
        {
          "indexed": false,
          "internalType": "uint256",
          "name": "DHID",
          "type": "uint256"
        },
        {
          "indexed": false,
          "internalType": "string",
          "name": "name",
          "type": "string"
        },
        {
          "indexed": false,
          "internalType": "uint256",
          "name": "estimatedPrize",
          "type": "uint256"
        }
      ],
      "name": "DHInPreparation",
      "type": "event"
    },
    {
      "anonymous": false,
      "inputs": [
        {
          "indexed": false,
          "internalType": "uint256",
          "name": "DHID",
          "type": "uint256"
        },
        {
          "indexed": false,
          "internalType": "string",
          "name": "name",
          "type": "string"
        },
        {
          "indexed": false,
          "internalType": "uint256",
          "name": "estimatedPrize",
          "type": "uint256"
        }
      ],
      "name": "DHOpen",
      "type": "event"
    },
    {
      "anonymous": false,
      "inputs": [
        {
          "indexed": false,
          "internalType": "uint256",
          "name": "DHID",
          "type": "uint256"
        },
        {
          "indexed": false,
          "internalType": "string",
          "name": "name",
          "type": "string"
        },
        {
          "indexed": false,
          "internalType": "uint256",
          "name": "estimatedPrize",
          "type": "uint256"
        }
      ],
      "name": "DHInVoting",
      "type": "event"
    },
    {
      "anonymous": false,
      "inputs": [
        {
          "indexed": false,
          "internalType": "uint256",
          "name": "DHID",
          "type": "uint256"
        },
        {
          "indexed": false,
          "internalType": "string",
          "name": "name",
          "type": "string"
        },
        {
          "indexed": false,
          "internalType": "uint256",
          "name": "estimatedPrize",
          "type": "uint256"
        }
      ],
      "name": "DHClosed",
      "type": "event"
    }
  ],
  "bytecode": "0x6080604052348015600f57600080fd5b50609d8061001e6000396000f3fe6080604052348015600f57600080fd5b506004361060285760003560e01c8063c19d93fb14602d575b600080fd5b60336056565b60405180826003811115604257fe5b60ff16815260200191505060405180910390f35b6000809054906101000a900460ff168156fea265627a7a7231582085eb5fb267e6d7f3e010d18d4cd98da570ab12aa03d222a9b5ab028c12cb1b1364736f6c634300050b0032",
  "source": "pragma solidity >=0.5.11;\n\n\n/// Define a contract `StateTracker` to manage the stages of the competition\ncontract StateTracker {\n\n    enum DHState {InPreparation, Open, InVoting, Closed}\n    DHState public state;\n\n    event DHInPreparation(uint256 DHID, string name, uint256 estimatedPrize);\n    event DHOpen(uint256 DHID, string name, uint256 estimatedPrize);\n    event DHInVoting(uint256 DHID, string name, uint256 estimatedPrize);\n    event DHClosed(uint256 DHID, string name, uint256 estimatedPrize);\n\n    /// Define a modifier that checks if DHackathon is in the `InPreparation` state\n    modifier isInPreparation() {\n        require(state == DHState.InPreparation, \"DHackathon is not in the Preparation state\");\n        _;\n    }\n\n    /// Define a modifier that checks if DHackathon is in the `Open` state\n    modifier isOpen() {\n        require(state == DHState.Open, \"DHackathon is not in the Open state\");\n        _;\n    }\n\n    /// Define a modifier that checks if DHackathon is in the `InVoting` state\n    modifier isInVoting() {\n        require(state == DHState.InVoting, \"DHackathon is not in the Voting state\");\n        _;\n    }\n\n    /// Define a modifier that checks if DHackathon is in the `Closed` state\n    modifier isClosed() {\n        require(state == DHState.Closed, \"DHackathon is not in the Closed state\");\n        _;\n    }\n\n    /// Define a modifier that checks if DHackathon is not in the `Closed` state\n    modifier isNotClosed() {\n        require(state != DHState.Closed, \"DHackathon is not in the Closed state\");\n        _;\n    }\n\n    /// Define function to open the competition\n    function _openDHackathon(uint256 _DHID, string memory _name, uint256 _prize)\n        internal\n        isInPreparation()\n    {\n        state = DHState.Open;\n        emit DHOpen(_DHID, _name, _prize);\n    }\n\n    /// Define function to set the competition to the voting state\n    function _toVotingDHackathon(uint256 _DHID, string memory _name, uint256 _prize)\n        internal\n        isOpen()\n    {\n        state = DHState.InVoting;\n        emit DHInVoting(_DHID, _name, _prize);\n    }\n\n    /// Define function to close the competition\n    function _closeDHackathon(uint256 _DHID, string memory _name, uint256 _prize)\n        internal\n        isInVoting()\n    {\n        state = DHState.Closed;\n        emit DHClosed(_DHID, _name, _prize);\n    }\n\n}",
  "sourcePath": "/Users/alanarvelo/Documents/COURSES/CONSENSYS/final-project/contracts/states/StateTracker.sol",
  "compiler": {
    "name": "solc",
    "version": "0.5.11+commit.c082d0b4.Emscripten.clang"
  },
  "schemaVersion": "3.0.12",
  "updatedAt": "2020-01-31T13:57:26.899Z",
  "devdoc": {
    "methods": {}
  },
  "userdoc": {
    "methods": {},
    "notice": "Define a contract `StateTracker` to manage the stages of the competition"
  }
}